{
  "_format": "hh-sol-artifact-1",
  "contractName": "TransferHelperTest",
  "sourceName": "contracts/TransferHelperTest.sol",
  "abi": [
    {
      "inputs": [
        {
          "internalType": "address",
          "name": "token",
          "type": "address"
        },
        {
          "internalType": "address",
          "name": "to",
          "type": "address"
        },
        {
          "internalType": "uint256",
          "name": "value",
          "type": "uint256"
        }
      ],
      "name": "safeApprove",
      "outputs": [],
      "stateMutability": "nonpayable",
      "type": "function"
    },
    {
      "inputs": [
        {
          "internalType": "address",
          "name": "token",
          "type": "address"
        },
        {
          "internalType": "address",
          "name": "to",
          "type": "address"
        },
        {
          "internalType": "uint256",
          "name": "value",
          "type": "uint256"
        }
      ],
      "name": "safeTransfer",
      "outputs": [],
      "stateMutability": "nonpayable",
      "type": "function"
    },
    {
      "inputs": [
        {
          "internalType": "address",
          "name": "to",
          "type": "address"
        },
        {
          "internalType": "uint256",
          "name": "value",
          "type": "uint256"
        }
      ],
      "name": "safeTransferETH",
      "outputs": [],
      "stateMutability": "nonpayable",
      "type": "function"
    },
    {
      "inputs": [
        {
          "internalType": "address",
          "name": "token",
          "type": "address"
        },
        {
          "internalType": "address",
          "name": "from",
          "type": "address"
        },
        {
          "internalType": "address",
          "name": "to",
          "type": "address"
        },
        {
          "internalType": "uint256",
          "name": "value",
          "type": "uint256"
        }
      ],
      "name": "safeTransferFrom",
      "outputs": [],
      "stateMutability": "nonpayable",
      "type": "function"
    }
  ],
  "bytecode": "0x608060405234801561001057600080fd5b50610746806100206000396000f3fe608060405234801561001057600080fd5b506004361061004c5760003560e01c80637c4368c114610051578063d1660f991461007f578063d9fc4b61146100b5578063eb5625d9146100f1575b600080fd5b61007d6004803603604081101561006757600080fd5b506001600160a01b038135169060200135610127565b005b61007d6004803603606081101561009557600080fd5b506001600160a01b03813581169160208101359091169060400135610135565b61007d600480360360808110156100cb57600080fd5b506001600160a01b03813581169160208101358216916040820135169060600135610145565b61007d6004803603606081101561010757600080fd5b506001600160a01b03813581169160208101359091169060400135610157565b6101318282610162565b5050565b610140838383610255565b505050565b610151848484846103a9565b50505050565b610140838383610506565b604080516000808252602082019092526001600160a01b0384169083906040518082805190602001908083835b602083106101ae5780518252601f19909201916020918201910161018f565b6001836020036101000a03801982511681845116808217855250505050505090500191505060006040518083038185875af1925050503d8060008114610210576040519150601f19603f3d011682016040523d82523d6000602084013e610215565b606091505b50509050806101405760405162461bcd60e51b81526004018080602001828103825260348152602001806106856034913960400191505060405180910390fd5b604080516001600160a01b038481166024830152604480830185905283518084039091018152606490920183526020820180516001600160e01b031663a9059cbb60e01b178152925182516000946060949389169392918291908083835b602083106102d25780518252601f1990920191602091820191016102b3565b6001836020036101000a0380198251168184511680821785525050505050509050019150506000604051808303816000865af19150503d8060008114610334576040519150601f19603f3d011682016040523d82523d6000602084013e610339565b606091505b5091509150818015610367575080511580610367575080806020019051602081101561036457600080fd5b50515b6103a25760405162461bcd60e51b815260040180806020018281038252602d8152602001806106e4602d913960400191505060405180910390fd5b5050505050565b604080516001600160a01b0385811660248301528481166044830152606480830185905283518084039091018152608490920183526020820180516001600160e01b03166323b872dd60e01b17815292518251600094606094938a169392918291908083835b6020831061042e5780518252601f19909201916020918201910161040f565b6001836020036101000a0380198251168184511680821785525050505050509050019150506000604051808303816000865af19150503d8060008114610490576040519150601f19603f3d011682016040523d82523d6000602084013e610495565b606091505b50915091508180156104c35750805115806104c357508080602001905160208110156104c057600080fd5b50515b6104fe5760405162461bcd60e51b81526004018080602001828103825260318152602001806106546031913960400191505060405180910390fd5b505050505050565b604080516001600160a01b038481166024830152604480830185905283518084039091018152606490920183526020820180516001600160e01b031663095ea7b360e01b178152925182516000946060949389169392918291908083835b602083106105835780518252601f199092019160209182019101610564565b6001836020036101000a0380198251168184511680821785525050505050509050019150506000604051808303816000865af19150503d80600081146105e5576040519150601f19603f3d011682016040523d82523d6000602084013e6105ea565b606091505b5091509150818015610618575080511580610618575080806020019051602081101561061557600080fd5b50515b6103a25760405162461bcd60e51b815260040180806020018281038252602b8152602001806106b9602b913960400191505060405180910390fdfe5472616e7366657248656c7065723a3a7472616e7366657246726f6d3a207472616e7366657246726f6d206661696c65645472616e7366657248656c7065723a3a736166655472616e736665724554483a20455448207472616e73666572206661696c65645472616e7366657248656c7065723a3a73616665417070726f76653a20617070726f7665206661696c65645472616e7366657248656c7065723a3a736166655472616e736665723a207472616e73666572206661696c6564a2646970667358221220f691277cddee4a175c59841bb67e1df6dec2eae61475b8ea91dc5e46e03f786364736f6c634300060c0033",
  "linkReferences": {},
  "deployedLinkReferences": {}
}